	0x0020:  5018 faf0 64e4 0000 2300 0209 0001       P...d...#.....
17:02:04.386307 ens224 In  IP 172.16.6.62.10001 > 172.16.6.101.46908: Flags [.], ack 7, win 1472, length 0
	0x0000:  4500 0028 0010 0000 4006 15fd ac10 063e  E..(....@......>
	0x0010:  ac10 0665 2711 b73c 0000 0001 42c6 28ac  ...e'..<....B.(.
	0x0020:  5010 05c0 fb8f 0000 0000 0000 0000       P.............
17:02:04.386323 ens224 In  IP 172.16.6.62.10001 > 172.16.6.101.46908: Flags [P.], seq 1:22, ack 7, win 1472, length 21
--
	0x0020:  5018 fadb 64e4 0000 2300 0205 0002       P...d...#.....
17:02:04.490928 ens224 In  IP 172.16.6.62.10001 > 172.16.6.101.46908: Flags [.], ack 13, win 1472, length 0
	0x0000:  4500 0028 0012 0000 4006 15fb ac10 063e  E..(....@......>
	0x0010:  ac10 0665 2711 b73c 0000 0016 42c6 28b2  ...e'..<....B.(.
	0x0020:  5010 05c0 fb74 0000 0000 0000 0000       P....t........
17:02:04.490947 ens224 In  IP 172.16.6.62.10001 > 172.16.6.101.46908: Flags [P.], seq 22:25, ack 13, win 1472, length 3
--
	0x0020:  5018 fad8 65b6 0000 2300 d430 0003 0000  P...e...#..0....
	0x0030:  0000 0000 0000 3200 0000 0000 0000 6000  ......2.......`.
	0x0040:  0001 7343 ff63 0000 0018 0000 0082 0245  ..sC.c.........E
	0x0050:  5c23 6e04 400d 6504 ef0b 1400 ec00 df00  \#n.@.e.........
	0x0060:  e700 9502 8c00 0601 0c00 a500 2100 1200  ............!...
	0x0070:  0a00 e700 6000 7100 9500 9700 db11 ff00  ....`.q.........
--
	0x0020:  5018 fad1 64e4 0000 2300 0208 0004       P...d...#.....
17:02:04.692010 ens224 In  IP 172.16.6.62.10001 > 172.16.6.101.46908: Flags [.], ack 235, win 1472, length 0
	0x0000:  4500 0028 0016 0000 4006 15f7 ac10 063e  E..(....@......>
	0x0010:  ac10 0665 2711 b73c 0000 0020 42c6 2990  ...e'..<....B.).
	0x0020:  5010 05c0 fa8c 0000 0000 0000 0000       P.............
17:02:04.692029 ens224 In  IP 172.16.6.62.10001 > 172.16.6.101.46908: Flags [P.], seq 32:53, ack 235, win 1472, length 21
